:020000040800F2
:10000000000002208D3300089D170008A517000886
:10001000AD170008B5170008BD1700080000000064
:10002000000000000000000000000000C5170008EC
:10003000D317000800000000E1170008EF170008C0
:10004000DD330008DD330008DD330008DD33000850
:10005000DD330008DD330008DD330008DD33000840
:10006000DD330008011800080F180008DD33000810
:10007000DD330008DD330008DD330008DD33000820
:100080001D18000831180008DD330008DD330008B2
:10009000DD330008DD330008DD330008DD33000800
:1000A000DD330008DD330008DD330008DD330008F0
:1000B000DD330008DD330008DD330008DD330008E0
:1000C000DD330008DD330008DD330008DD330008D0
:1000D000DD330008DD330008DD330008DD330008C0
:1000E000DD330008DD330008DD330008DD330008B0
:1000F000DD330008DD330008DD330008DD330008A0
:10010000DD330008DD330008DD330008DD3300088F
:10011000DD330008DD330008DD330008DD3300087F
:10012000DD330008DD330008DD330008DD3300086F
:10013000DD330008DD330008DD330008DD3300085F
:10014000DD330008DD330008DD330008DD3300084F
:10015000DD330008DD33000845180008DD330008F2
:10016000DD330008DD330008DD330008DD3300082F
:10017000DD330008DD330008DD3300080000000037
:0801800059180008DD330008E6
:1001C0000348044B834202D0034B03B118477047E6
:1001D0000801002008010020000000000548064B2F
:1001E0001B1AD90F01EBA301491002D0034B03B135
:1001F0001847704708010020080100200000000097
:1002000010B5064C237843B9FFF7DAFF044B13B15E
:100210000448AFF300800123237010BD08010020C3
:1002200000000000FC7F040808B5044B1BB1044922
:100230000448AFF30080BDE80840CFE700000000AD
:100240000C010020FC7F040870B50F4B0F4DAB4232
:10025000A3EB050607D0B610002455F8043B013483
:100260009847A642F9D847F0C9FE094D094B5E1BD5
:10027000AB424FEAA60606D0002455F8043B0134F1
:100280009847A642F9D870BD10C7040810C70408E3
:1002900010C7040814C70408830730B547D0541E9C
:1002A000002A3ED0CAB2034601E0013C39D303F82C
:1002B000012B9D07F9D1032C2CD9CDB205EB0525D7
:1002C0000F2C05EB054535D9A4F1100222F00F0CD7
:1002D00003F1100EE6444FEA121C1A46C2E900551B
:1002E000C2E9025510327245F8D10CF1010214F046
:1002F0000C0F03EB021204F00F0C13D0ACF104034B
:1003000023F003030433134442F8045B9342FBD10C
:100310000CF003042CB1C9B21C4403F8011BA34226
:10032000FBD130BD64461346002CF4D1F9E70346F7
:100330001446C0E71A46A446E0E700BF53B94AB9DD
:10034000002908BF00281CBF4FF0FF314FF0FF30DD
:1003500000F06AB9ADF1080C6DE904CE00F006F8C2
:10036000DDF804E0DDE9022304B070472DE9F04731
:10037000089D0E4604460F46002B4AD194468C45F4
:10038000B2FA82F260D942B1C2F12003974020FA5A
:1003900003F30CFA02FC1F4394404FEA1C4E1FFA71
:1003A0008CF6B7FBFEF1230C0EFB117743EA0743F3
:1003B00001FB06F098420AD91CEB030301F1FF3759
:1003C00080F01581984240F21281023963441B1A71
:1003D000A4B2B3FBFEF00EFB103344EA034400FB6F
:1003E00006F6A6420AD91CEB040400F1FF3380F0A4
:1003F0000081A64240F2FD806444023840EA014098
:10040000A41B00211DB1D4400023C5E90043BDE871
:10041000F0878B4205D90DB1C5E9000100210846DE
:10042000F5E7B3FA83F1002946D1B34202D3824201
:1004300000F2F580841A66EB030201201746002DB6
:10044000E5D0C5E90047E2E7002A40F09380A1EB40
:100450000C034FEA1C471FFA8CFE0121B3FBF7F691
:1004600007FB1630230C43EA00430EFB06F09842CC
:1004700008D91CEB030306F1FF3802D2984200F2C0
:10048000D08046461B1AA4B2B3FBF7F007FB10332B
:1004900044EA03440EFB00FEA64508D91CEB040405
:1004A00000F1FF3302D2A64500F2B6801846A4EB55
:1004B0000E0440EA0640A5E7C1F120078B4022FA6E
:1004C00007FC4CEA030C06FA01FE20FA07F426FAB0
:1004D00007F344EA0E0400FA01F84FEA1C404FEA21
:1004E0001449B3FBF0FE1FFA8CF600FB1E3349EAF9
:1004F00003430EFB06F9994502FA01F20BD91CEBF6
:1005000003030EF1FF3A80F08580994540F2828026
:10051000AEF1020E6344A3EB0909A4B2B9FBF0F3F8
:1005200000FB139944EA094403FB06F6A64208D9E6
:100530001CEB040403F1FF3068D2A64266D9023BEB
:10054000644443EA0E40A41BA0FB02E6B442734697
:10055000B14652D34FD05DB1B8EB030264EB09044E
:1005600004FA07F722FA01F31F43CC40C5E90074EF
:1005700000214CE7C2F1200120FA01F30CFA02FC41
:1005800026FA01F1964033434FEA1C471FFA8CFECE
:10059000B1FBF7F007FB1016190C41EA064100FB0E
:1005A0000EF68E4204FA02F408D91CEB010100F1A8
:1005B000FF382DD28E422BD902386144891B9BB261
:1005C000B1FBF7F607FB161143EA014306FB0EF1F8
:1005D000994208D91CEB030306F1FF3814D2994263
:1005E00012D9023E63445B1A46EA004136E73946B7
:1005F000EDE6184602E7F045ADD2BEEB020366EB2E
:100600000C060138B146A6E74646ECE7034698E7F4
:100610004046D3E7D6467EE76444023847E70846BB
:100620000DE7023E63442DE7704700BF80EA0102F8
:10063000844612F0030F4FD111F0030F32D14DF861
:10064000044D11F0040F51F8043B0BD0A3F101321B
:100650009A4312F0803F04BF4CF8043B51F8043B2E
:1006600016D100BF51F8044BA3F101329A4312F0A6
:10067000803FA4F101320BD14CF8043BA24312F0AD
:10068000803F04BF51F8043B4CF8044BEAD02346AA
:100690000CF8013B13F0FF0F4FEA3323F8D15DF85C
:1006A000044B704711F0010F06D011F8012B0CF824
:1006B000012B002A08BF704711F0020FBFD031F89C
:1006C000022B12F0FF0F16BF2CF8022B8CF8002023
:1006D00012F47F4FB3D1704711F8012B0CF8012BA6
:1006E000002AF9D1704700BF0000000000000000A0
:1006F00000000000000000000000000000000000FA
:1007000030B490F800F020F007016FF0000C10F00A
:10071000070491F820F040F048804FF000046FF09B
:100720000700D1E9002391F840F000F1080082FAB7
:100730004CF2A4FA8CF283FA4CF3A2FA8CF34BBB82
:10074000D1E9022382FA4CF200F10800A4FA8CF2FB
:1007500083FA4CF3A2FA8CF3E3B9D1E9042382FAC9
:100760004CF200F10800A4FA8CF283FA4CF3A2FADE
:100770008CF37BB9D1E9062301F1200182FA4CF216
:1007800000F10800A4FA8CF283FA4CF3A2FA8CF37D
:10079000002BC6D0002A04BF04301A4612BAB2FA9F
:1007A00082F200EBD20030BC7047D1E9002304F0A4
:1007B0000305C4F100004FEAC50514F0040F91F8D9
:1007C00040F00CFA05F562EA05021CBF63EA050376
:1007D00062464FF00004AAE700000000000000009D
:1007E00002780B78012A28BF9A4240F0D8806DE940
:1007F000044540EA0104CDE902676FF0000C4FEABE
:1008000044721AB380EA010414F0070F6BD100F0B0
:10081000070420F0070004F0030521F007014FEA68
:10082000C505F0E8042314F0040FF1E804670CFA9E
:1008300005F462EA040266EA04060BD063EA0403E4
:10084000624667EA0407664604E000BFF0E8042356
:10085000F1E8046782FA4CF582EA0604A4FA8CF403
:100860006CBB83FA4CF583EA0705A5FA8CF595B9BC
:1008700050E9022351E9026782FA4CF582EA060444
:10088000A4FA8CF483FA4CF583EA0705A5FA8CF5F3
:100890002543DBD09CB92DBAB5FA85F424F00704C2
:1008A00027FA04F1DDE9026723FA04F303F0FF00FD
:1008B00001F0FF01FDE80445A0EB0100704724BAF8
:1008C000B4FA84F424F0070426FA04F1DDE902679F
:1008D00022FA04F202F0FF0001F0FF01FDE80445F6
:1008E000A0EB0100704714F0030F3CD110F003049B
:1008F00028D150F8082B51F8083B82FA4CF582EACF
:100900000305A5FA8CF55DB950F8042C51F8043CA8
:1009100082FA4CF582EA0305A5FA8CF5002DE8D0A1
:100920002DBAB5FA85F424F0070423FA04F122FA6B
:1009300004F202F0FF0001F0FF01FDE80445A0EB26
:10094000010070474FEAC40420F0030050F8082B60
:1009500021F0030151F8083B0CFA04F462EA0402A6
:1009600063EA0403C9E710F003041DD0A1EB0401FE
:1009700020F00300E40750F8042B06D012D28B7845
:100980005FFAA2F4E41A06D12BB1CB785FFAB2F485
:10099000E41A00D133B920465DF8104B7047A2EB42
:1009A0000300704701F1040150F8042BCC0721F03B
:1009B000030151F8043B48D824D222F07F4482FA44
:1009C0004CF594EA1325A5FA8CF50AD165B951F8CE
:1009D000043B84EA0204B4EB036F0ED150F8042BFD
:1009E000EBE74FEA132355E035F07F454DD108780A
:1009F000FDE80445C0F1000070474FEA126203F0C1
:100A0000FF0347E002EA1C4482FA4CF594EA1345DE
:100A1000A5FA8CF50AD165B951F8043B84EA0204C1
:100A2000B4EB034F0CD150F8042BEBE74FEA134320
:100A300030E015EA1C4528D10B884FEA124229E024
:100A40004FEA124203EA1C4324E002F0FF0482FA58
:100A50004CF594EA1365A5FA8CF50AD165B951F8FD
:100A6000043B84EA0204B4EB032F09D150F8042BB1
:100A7000EBE74FEA13630DE015F0FF0F05D10B68AC
:100A80004FEA122223F07F4304E04FF00000FDE81C
:100A90000445704712BA1BBA82FA4CF482EA030486
:100AA000A4FA8CF5B5FA85F402FA04F203FA04F319
:100AB0004FEA1260FDE80445A0EB1360704700BFE9
:100AC00080B500AF00F0D6FB00F0CEFB4FF47A709B
:100AD00002F092FB002000F08FFB0023184680BD3F
:100AE00080B487B000AFF860B9601346FB80002384
:100AF000FB8209E0FB8ABA6813441A78FB689B689A
:100B00001A80FB8A0133FB82FA8AFB889A42F1D36E
:100B100000BF00BF1C37BD465DF8047B704780B442
:100B200087B000AFF860B9607A6000237B610AE0AB
:100B30007B695B00BA681A44FB689B6812881A805C
:100B40007B6901337B617A697B689A42F0D300BF8D
:100B500000BF1C37BD465DF8047B704780B582B08E
:100B600000AF7860054B1B69002B03D0034B1B695A
:100B70000248984700BF0837BD4680BD00000020EE
:100B800080B582B000AF7860054B1B69002B03D0A5
:100B9000034B1B690248984700BF0837BD4680BD1C
:100BA0000000002080B588B000AF7860BC4BFB61CE
:100BB000322002F021FBFB695B6801221A800520CC
:100BC00002F01AFBFB695B6828221A80FB695B68EC
:100BD000CF221A8000233B7383237B733023BB73A4
:100BE00007F10C0303221946F869FFF779FFFB6947
:100BF0005B68ED221A8064233B7303237B7312230B
:100C0000BB738123FB7307F10C0304221946F869B7
:100C1000FFF766FFFB695B68E8221A8085233B7358
:100C200001237B737923BB7307F10C03032219465D
:100C3000F869FFF755FFFB695B68CB221A803923FF
:100C40003B732C237B730023BB733423FB7302237E
:100C50003B7407F10C0305221946F869FFF740FFC2
:100C6000FB695B68F7221A80FB699B6820221A8067
:100C7000FB695B68EA221A8000233B7300237B73C5
:100C800007F10C0302221946F869FFF729FFFB69F7
:100C90005B68C0221A80FB699B6826221A80FB6968
:100CA0005B68C1221A80FB699B6811221A80FB696C
:100CB0005B68C5221A8035233B733E237B7307F1A3
:100CC0000C0302221946F869FFF70AFFFB695B680B
:100CD000C7221A80FB699B68BE221A800221F8692C
:100CE00000F004F9FB695B683A221A80FB699B6893
:100CF00055221A80FB695B68B1221A8000233B737E
:100D00001B237B7307F10C0302221946F869FFF7D6
:100D1000E7FEFB695B6826221A80FB699B6801225B
:100D20001A80FB695B68E0221A801F233B731A2339
:100D30007B731823BB730A23FB730F233B740623B7
:100D40007B744523BB748723FB7432233B750A23D2
:100D50007B750723BB750223FB7507233B760523B1
:100D60007B760023BB7607F10C030F221946F86946
:100D7000FFF7B6FEFB695B68E1221A8000233B7334
:100D800025237B732723BB730523FB7310233B743D
:100D900009237B743A23BB747823FB744D233B7582
:100DA00005237B751823BB750D23FB7538233B7614
:100DB0003A237B761F23BB7607F10C030F221946DB
:100DC000F869FFF78DFEFB695B682A221A80002311
:100DD0003B7300237B73FB691B88013B1B12DBB257
:100DE000BB73FB691B88DBB2013BDBB2FB7307F112
:100DF0000C0304221946F869FFF772FEFB695B6871
:100E00002B221A8000233B7300237B73FB695B88D2
:100E1000013B1B12DBB2BB73FB695B88DBB2013B9E
:100E2000DBB2FB7307F10C0304221946F869FFF7E4
:100E300057FEFB695B682C221A80FB695B68B7224E
:100E40001A80FB699B6807221A80FB695B68B622DF
:100E50001A800A233B7382237B732723BB730023EF
:100E6000FB7307F10C0304221946F869FFF738FEFB
:100E7000FB695B6811221A80642002F0BDF9FB69EE
:100E80005B6829221A80142002F0B6F9012202219F
:100E9000044801F02BFCFB69DB68002B1AD003E04F
:100EA0000000002000040240FB69DB680D4A0021BD
:100EB000184601F0E9FE0346002B09D1FB69DB6807
:100EC000094A0421184601F0DFFE0346002B01D039
:100ED000002303E0FB697A681A61FB691846203732
:100EE000BD4680BD5D0B0008810B000880B483B057
:100EF00000AF78600B46FB707B685B6836221A8017
:100F0000FB78032B1ED801A252F823F01D0F000816
:100F1000270F0008310F00083B0F00087B689B6813
:100F200048221A800FE07B689B68E8221A800AE05A
:100F30007B689B6888221A8005E07B689B68282272
:100F40001A8000E000BF00BF0C37BD465DF8047B8F
:100F5000704700BF80B586B000AFF8600846114604
:100F60001A4603467B810B463B811346FB80FB6898
:100F70005B682A221A807B891B0A9BB2DBB23B7515
:100F80007B89DBB27B753B891B0A9BB2DBB2BB75ED
:100F90003B89DBB2FB7507F1140304221946F8689C
:100FA000FFF79EFDFB685B682B221A80FB881B0AFB
:100FB0009BB2DBB23B75FB88DBB27B753B8C1B0ABB
:100FC0009BB2DBB2BB753B8CDBB2FB7507F1140344
:100FD00004221946F868FFF783FDFB685B682C2242
:100FE0001A8000BF1837BD4680BD80B584B000AF01
:100FF000F860B9607A60FB68DB68002B09D0FB6899
:10100000D868B968FB689B681A467B6801F05AFC8F
:1010100004E07A68B968F868FFF781FD00BF10370F
:10102000BD4680BD80B485B000AF78607B681B0A88
:101030009BB223F4FF6323F007039AB27B685B093A
:101040009BB203F4FC639BB213439AB27B68DB0848
:101050009BB203F01F039BB213439BB2BB81BB89BE
:1010600018461437BD465DF8047B704780B500AF65
:1010700015F06CFB0346184602F0B1F9034618461A
:1010800080BD000090B58FB002AFF860B9607A60A3
:10109000BB68B3F90430002B0FDBBB68B3F9063033
:1010A000002B0ADBBB68B3F90030EF2B05DCBB6813
:1010B000B3F90230B3F5A07F03DBF86815F0B8FB95
:1010C00059E0BB68B3F9003023EAE3731BB2BB629B
:1010D000BB68B3F9023023EAE3731BB27B62BB68DF
:1010E000B3F90430EF2BA8BFEF231BB23B62BB6800
:1010F000B3F9063040F23F129342A8BF13461BB229
:10110000FB613A6ABB6AD31A0133BB61BB68B3F9AE
:1011100004309AB2BB68B3F900309BB2D31A9BB2C9
:1011200001339BB2FB82154B1868BB6A99B23B6ACC
:101130009AB27B6A9CB2FB699BB200932346FFF78D
:1011400009FF7B6AFB620FE00C4B1B687968BA6988
:101150001846FFF74AFFB7F916305B007A68134468
:101160007B60FB6A0133FB62FA6AFB699A42EBDD42
:10117000F86815F05DFB3437BD4690BD24010020B2
:1011800080B582B000AF78607B68181D7B6803F182
:1011900020014FF41663002215F0C6F97B6803F5B1
:1011A0009753184615F07EF97B6803F58053F022BB
:1011B000A3F8E0227B6803F580534FF4A072A3F8F4
:1011C000E2227B6804337A6802F58052C2F8EC327E
:1011D0007B6803F580531A46064BC2F8F4327B68ED
:1011E00003F59753184615F0BBF900BF0837BD4605
:1011F00080BD00BF8510000890B585B000AF786055
:101200000020FFF7CFFC0346164A13601548FFF78E
:10121000B7FFFFF72BFF044643F65720FFF702FF07
:1012200003460022194620460CF069FBFFF71EFF1B
:1012300003463C224FF47A71184614F055FCF860CE
:1012400040224021F86806F05FFA002300220521C1
:10125000F86806F081FB19F075F9052001F0CCFF64
:1012600000BFF8E72401002080B500AF03F0ACF820
:1012700000BF80BD80B500AF01F04CFF00F00AF860
:1012800000F078F800F024F900F096F900F04AFA3E
:1012900000BF80BD80B594B000AF07F120033022BD
:1012A00000211846FEF7F8FF07F10C0300221A6030
:1012B0005A609A60DA601A610023BB60284B1B6C8D
:1012C000274A43F080531364254B1B6C03F0805373
:1012D000BB60BB6800237B60224B1B68214A43F440
:1012E000804313601F4B1B6803F480437B607B6863
:1012F00001233B624FF480337B620223BB634FF4D4
:101300008003FB6304233B64A8237B640223BB6448
:101310000723FB6407F12003184600F0E7FB0346B0
:10132000002B01D000F020F80F23FB6002233B616B
:1013300000237B614FF4A053BB614FF48053FB61EA
:1013400007F10C030521184600F048FE0346002B68
:1013500001D000F009F800BF5037BD4680BD00BF86
:10136000003802400070004080B400AF72B600BF89
:1013700000BFFDE780B58CB000AF07F11C03002271
:101380001A605A609A60DA601A610023BB614C4BA4
:101390001B6B4B4A43F010031363494B1B6B03F069
:1013A0001003BB61BB6900237B61454B1B6B444A47
:1013B00043F004031363424B1B6B03F004037B6194
:1013C0007B6900233B613E4B1B6B3D4A43F080032E
:1013D00013633B4B1B6B03F080033B613B690023B2
:1013E000FB60374B1B6B364A43F001031363344BEE
:1013F0001B6B03F00103FB60FB680023BB60304BF9
:101400001B6B2F4A43F0020313632D4B1B6B03F03E
:101410000203BB60BB6800237B60294B1B6B284A1F
:1014200043F008031363264B1B6B03F008037B6038
:101430007B680122C021234801F058F900220221D3
:10144000214801F053F91823FB614FF488133B62E4
:1014500001237B6207F11C0319461C4800F0AAFF18
:10146000C023FB6101233B6200237B620023BB623C
:1014700007F11C031946134800F09CFF0223FB618F
:1014800001233B6200237B620023BB6207F11C0344
:1014900019460D4800F08EFF00220021092001F0BE
:1014A00002FE092001F01BFE002200210A2001F0AB
:1014B000FAFD0A2001F013FE00BF3037BD4680BDA3
:1014C00000380240000002400004024000100240C8
:1014D00080B582B000AF00237B60344B1B6B334A76
:1014E00043F480031363314B1B6B03F480037B6075
:1014F0007B6800233B602D4B1B6B2C4A43F400138D
:1015000013632A4B1B6B03F400133B603B68284BAF
:10151000284A1A60264B00225A60254B80229A6086
:10152000234B4FF40072DA60214B00221A61204BEA
:101530004FF400625A611E4B4FF400529A611C4BEB
:101540000022DA611A4B4FF440321A62184B04221F
:101550005A62174B03229A62154B0022DA62144B2F
:1015600000221A63124801F0FFF80346002B01D055
:10157000FFF7FAFE00220021102001F094FD102058
:1015800001F0ADFD00220021112001F08CFD1120A1
:1015900001F0A5FD00220021462001F084FD462037
:1015A00001F09DFD00BF0837BD4680BD00380240F8
:1015B000501400201064024080B588B000AF3B1D7D
:1015C00000221A605A609A60DA601A615A619A6160
:1015D000274B4FF020421A60254B264A5A60244B75
:1015E00000229A60224B0022DA60214B00221A610D
:1015F0001F4B10225A611E4B00229A611C4B002285
:10160000DA611B4B00221A62194B00225A62184BF6
:101610004FF480529A62164B0022DA62144B002279
:101620001A63134B00225A63114B00229A63104B2A
:1016300000225A640F237B600F23BB60FF23FB60F3
:101640000F233B6110237B611123BB610023FB61EE
:101650003B1D00221946064800F000FA0346002B05
:1016600001D0FFF781FE00BF2037BD4680BD00BF1F
:10167000B0140020040100A080B586B000AF3B1D6F
:1016800000221A605A609A60DA601A611C4B1B686B
:10169000002B31D11A4B01221A6000233B60194BF9
:1016A0009B6B184A43F001039363164B9B6B03F04B
:1016B00001033B603B684FF680737B600223BB6095
:1016C0000023FB6003233B610C237B613B1D194618
:1016D0000D4800F06FFE4EF2B3737B600223BB60D7
:1016E0000023FB6003233B610C237B613B1D1946F8
:1016F000064800F05FFE00E000BF1837BD4680BD21
:10170000001500200038024000100240000C02408A
:1017100080B582B000AF7860FFF7AEFF00BF08373A
:10172000BD4680BD80B500AF064B074A1A6005482C
:1017300001F086FD0346002B01D0FFF715FE00BF28
:1017400080BD00BF041500200008065080B584B09D
:1017500000AF78607B681B680E4A934215D1002366
:10176000FB600D4B5B6B0C4A43F0400353630A4B29
:101770005B6B03F04003FB60FB68002200215020FC
:1017800001F091FC502001F0AAFC00BF1037BD46CB
:1017900080BD00BF000806500038024080B400AF92
:1017A00000BFFDE780B400AF00BFFDE780B400AF2D
:1017B00000BFFDE780B400AF00BFFDE780B400AF1D
:1017C00000BFFDE780B400AF00BFBD465DF8047BFD
:1017D000704780B400AF00BFBD465DF8047B704722
:1017E00080B400AF00BFBD465DF8047B704780B594
:1017F00000AF01F0E1FC012015F06AF800BF80BDE8
:1018000080B500AF082000F08BFF00BF80BD80B521
:1018100000AF102000F084FF00BF80BD80B500AF96
:10182000024801F0A7F800BF80BD00BFD41500201A
:1018300080B500AF024801F09DF800BF80BD00BF39
:101840007415002080B500AF024801F093F800BF86
:1018500080BD00BF1415002080B500AF024801F024
:1018600019FD00BF80BD00BF0415002080B483B007
:1018700000AF00237B60104B5B6C0F4A43F4804346
:1018800053640D4B5B6C03F480437B607B680023E7
:101890003B60094B1B6C084A43F080531364064BB2
:1018A0001B6C03F080533B603B6800BF0C37BD46A8
:1018B0005DF8047B704700BF0038024080B487B0F9
:1018C00000AF786039603B681A687B6853F8223053
:1018D0003A68126823F001017B6843F822103B68E4
:1018E0009B68082B02D140237B6101E000237B61D0
:1018F0003B685A687B691A433B689B681A433B689C
:10190000DB681A433B681B691A433B685B691A43EF
:101910003B68DB691A433B681B6A1A433B685B6A96
:101920001A433B689B6A1A433B68DB6A1A433B686D
:101930001B6B13433B613B689B693A6913433B61F3
:101940003B68DB6B3A6913433B61104BFB60FB6800
:1019500043F48063FB60FB6843F4E023FB603B6877
:101960001A687B6853F82220FB68DB4302EA030114
:101970003B681A683B6919437B6843F822100023CF
:1019800018461C37BD465DF8047B70477FFB080096
:1019900080B485B000AFF860B9607A60BB681A683F
:1019A000BB685B681B011A43BB689B681B021A4338
:1019B000BB68DB681B041A43BB681B69013B1B0542
:1019C0001A43BB685B69023B1B0642EA0301BB6822
:1019D0009B697A6801321943FB6843F8221000239F
:1019E00018461437BD465DF8047B704780B485B057
:1019F00000AFF860B9607A603B603B68B3F5804F38
:101A00001DD1FB687A6853F82220134B1340BA6843
:101A10001168BA68526812011143BA6892681202DA
:101A20001143BA6892691143BA68D26812040A4332
:101A300043EA0201FB687A6843F8221005E0FB687C
:101A40007A686FF0704143F822100023184614376B
:101A5000BD465DF8047B70470000F0CF80B584B0D0
:101A600000AFF860B9607A60FB68002B01D10123F8
:101A700038E0FB6893F84930DBB2002B06D1FB68F5
:101A8000002283F84820F868FFF742FEFB681A68D6
:101A9000FB68083319461046FFF710FFFB6818680B
:101AA000FB689B681A46B968FFF772FFFB685868C5
:101AB000FB689A68FB681B6B7968FFF797FFFB6808
:101AC0001B68FA68926853F82210FB681B68FA6872
:101AD000926841F0010143F82210FB68012283F86B
:101AE0004920002318461037BD4680BD80B586B01A
:101AF00000AF78607B68002B01D1012367E27B682F
:101B00001B6803F00103002B75D0884B9B6803F022
:101B10000C03042B0CD0854B9B6803F00C03082BA3
:101B200012D1824B5B6803F48003B3F5800F0BD1B5
:101B30007E4B1B6803F40033002B5BD07B685B6833
:101B4000002B57D1012342E27B685B68B3F5803FED
:101B500006D1764B1B68754A43F4803313601DE051
:101B60007B685B68B3F5A02F0CD1704B1B686F4A84
:101B700043F4802313606D4B1B686C4A43F480333D
:101B800013600BE0694B1B68684A23F480331360D1
:101B9000664B1B68654A23F4802313607B685B688F
:101BA000002B13D001F01CFB386108E001F018FB9A
:101BB00002463B69D31A642B01D9032307E25B4B2E
:101BC0001B6803F40033002BF0D014E001F008FB95
:101BD000386108E001F004FB02463B69D31A642B2C
:101BE00001D90323F3E1514B1B6803F40033002BAD
:101BF000F0D100E000BF7B681B6803F00203002BFC
:101C000063D04A4B9B6803F00C03002B0BD0474B6F
:101C10009B6803F00C03082B1CD1444B5B6803F456
:101C20008003002B16D1414B1B6803F00203002BED
:101C300005D07B68DB68012B01D00123C7E13B4B5A
:101C40001B6823F0F8027B681B69DB0037491343EC
:101C50000B603AE07B68DB68002B20D0344B01221C
:101C60001A6001F0BDFA386108E001F0B9FA0246E5
:101C70003B69D31A022B01D90323A8E12B4B1B6824
:101C800003F00203002BF0D0284B1B6823F0F8026E
:101C90007B681B69DB00254913430B6015E0244B6F
:101CA00000221A6001F09CFA386108E001F098FA0D
:101CB00002463B69D31A022B01D9032387E11B4B50
:101CC0001B6803F00203002BF0D17B681B6803F054
:101CD0000803002B36D07B685B69002B16D0154BB0
:101CE00001221A6001F07CFA386108E001F078FA0C
:101CF00002463B69D31A022B01D9032367E10B4B40
:101D00005B6F03F00203002BF0D01BE0094B0022B5
:101D10001A6001F065FA38610EE001F061FA0246DE
:101D20003B69D31A022B07D9032350E10038024044
:101D300000004742800E4742884B5B6F03F002036E
:101D4000002BEAD17B681B6803F00403002B00F032
:101D500097800023FB75814B1B6C03F08053002B95
:101D60000FD10023BB607D4B1B6C7C4A43F080533A
:101D700013647A4B1B6C03F08053BB60BB68012378
:101D8000FB75774B1B6803F48073002B18D1744BE1
:101D90001B68734A43F48073136001F021FA3861C1
:101DA00008E001F01DFA02463B69D31A022B01D963
:101DB00003230CE16A4B1B6803F48073002BF0D003
:101DC0007B689B68012B06D1644B1B6F634A43F011
:101DD000010313671CE07B689B68052B0CD15F4BEC
:101DE0001B6F5E4A43F0040313675C4B1B6F5B4A37
:101DF00043F0010313670BE0584B1B6F574A23F066
:101E000001031367554B1B6F544A23F004031367F8
:101E10007B689B68002B15D001F0E2F938610AE07D
:101E200001F0DEF902463B69D31A41F2883293424F
:101E300001D90323CBE0494B1B6F03F00203002BB6
:101E4000EED014E001F0CCF938610AE001F0C8F9F5
:101E500002463B69D31A41F28832934201D90323E7
:101E6000B5E03E4B1B6F03F00203002BEED1FB7D70
:101E7000012B05D1394B1B6C384A23F08053136476
:101E80007B689B69002B00F0A180344B9B6803F0BA
:101E90000C03082B5CD07B689B69022B41D1314B32
:101EA00000221A6001F09CF9386108E001F098F90D
:101EB00002463B69D31A022B01D9032387E0274B43
:101EC0001B6803F00073002BF0D17B68DA697B6834
:101ED0001B6A1A437B685B6A9B011A437B689B6A97
:101EE0005B08013B1B041A437B68DB6A1B061B492A
:101EF00013434B601B4B01221A6001F071F93861EA
:101F000008E001F06DF902463B69D31A022B01D9B2
:101F100003235CE0114B1B6803F00073002BF0D02F
:101F200054E0104B00221A6001F05AF9386108E0C1
:101F300001F056F902463B69D31A022B01D903235B
:101F400045E0064B1B6803F00073002BF0D13DE029
:101F50007B689B69012B07D1012338E000380240E0
:101F600000700040600047421B4B5B68FB607B6871
:101F70009B69012B28D0FB6803F480027B68DB6936
:101F80009A4221D1FB6803F03F027B681B6A9A42A8
:101F90001AD1FA6847F6C07313407A68526A920100
:101FA000934211D1FB6803F440327B689B6A5B0863
:101FB000013B1B049A4207D1FB6803F070627B6807
:101FC000DB6A1B069A4201D0012300E00023184679
:101FD0001837BD4680BD00BF0038024080B584B0D0
:101FE00000AF786039607B68002B01D10123CCE021
:101FF000684B1B6803F007033A689A420CD9654B9B
:102000003A68D2B21A70634B1B6803F007033A6850
:102010009A4201D00123B8E07B681B6803F00203F9
:10202000002B20D07B681B6803F00403002B05D035
:10203000594B9B68584A43F4E05393607B681B6894
:1020400003F00803002B05D0534B9B68524A43F41E
:1020500060439360504B9B6823F0F0027B689B6861
:102060004D4913438B607B681B6803F00103002B11
:1020700044D07B685B68012B07D1474B1B6803F496
:102080000033002B19D101237FE07B685B68022BB2
:1020900003D07B685B68032B07D13F4B1B6803F0C1
:1020A0000073002B09D101236FE03B4B1B6803F049
:1020B0000203002B01D1012367E0374B9B6823F01B
:1020C00003027B685B68344913438B6001F088F836
:1020D000F8600AE001F084F80246FB68D31A41F286
:1020E0008832934201D903234FE02B4B9B6803F0C6
:1020F0000C027B685B689B009A42EBD1254B1B6806
:1021000003F007033A689A420CD2224B3A68D2B2E3
:102110001A70204B1B6803F007033A689A4201D0FB
:10212000012332E07B681B6803F00403002B08D016
:10213000194B9B6823F4E0527B68DB681649134314
:102140008B607B681B6803F00803002B09D0124BDF
:102150009B6823F460427B681B69DB000E491343D4
:102160008B6000F021F802460B4B9B681B0903F0C3
:102170000F030A49CB5C22FA03F3094A1360094BA7
:102180001B68184600F0E8FF002318461037BD46CC
:1021900080BD00BF003C02400038024004860408B5
:1021A0001C000020140000202DE9B04F94B000AFB7
:1021B00000237B640023FB6400233B640023BB6497
:1021C000794B9B6803F00C03082B0DD0082B00F211
:1021D000E180002B02D0042B03D0DBE0734BBB6407
:1021E000DBE0734BBB64D8E06F4B5B6803F03F03ED
:1021F0007B646D4B5B6803F48003002B63D06A4BF8
:102200005B689B090022BB63FA63BB6BC3F30803E3
:102210003B6300237B63D7E90C4522462B464FF0F6
:1022200000004FF00001590141EAD261500102461D
:102230000B462146511A3961294663EB01037B6144
:102240004FF000024FF00003D7E904AB59468B0171
:10225000514643EA916351468A015146B2EB010867
:10226000594663EB01094FF000024FF000034FEABB
:10227000C90343EA58734FEAC80290469946234679
:1022800018EB0303BB602B4649EB0303FB604FF0E5
:1022900000024FF00003D7E9024529464B022146D0
:1022A00043EAD15321464A02104619467B6C00226C
:1022B000BB62FA62D7E90A23FEF740F802460B46F2
:1022C0001346FB6458E0384B5B689B0900221846B4
:1022D0001146C0F308033B6200237B62D7E90889FB
:1022E00042464B464FF000004FF00001590141EAD1
:1022F000D261500102460B464146B2EB010A494603
:1023000063EB010B4FF000024FF000034FEA8B1319
:1023100043EA9A634FEA8A12B2EB0A0463EB0B05B5
:102320004FF000024FF00003EB0043EA5473E20069
:1023300014461D464346E3183B604B4645EB0303FA
:102340007B604FF000024FF00003D7E900452946BB
:102350008B02214643EA915321468A0210461946D0
:102360007B6C0022BB61FA61D7E90623FDF7E6FF2B
:1023700002460B461346FB640B4B5B681B0C03F0D9
:10238000030301335B003B64FA6C3B6CB2FBF3F379
:10239000BB6402E0054BBB6400BFBB6C1846503702
:1023A000BD46BDE8B08F00BF003802400024F400F5
:1023B00000127A0080B489B000AF786039600023E1
:1023C0007B6100233B610023BB610023FB616BE168
:1023D0000122FB6902FA03F37B613B681B687A699F
:1023E00013403B613A697B699A4240F05A813B68ED
:1023F0005B6803F00303012B05D03B685B6803F0C7
:102400000303022B30D17B689B68BB61FB695B00D7
:10241000032202FA03F3DB43BA691340BB613B6852
:10242000DA68FB695B0002FA03F3BA691343BB6124
:102430007B68BA699A607B685B68BB610122FB6953
:1024400002FA03F3DB43BA691340BB613B685B6884
:102450001B0903F00102FB6902FA03F3BA69134393
:10246000BB617B68BA695A603B685B6803F0030331
:10247000032B17D07B68DB68BB61FB695B00032221
:1024800002FA03F3DB43BA691340BB613B689A6805
:10249000FB695B0002FA03F3BA691343BB617B6813
:1024A000BA69DA603B685B6803F00303022B23D14F
:1024B000FB69DA087B68083253F82230BB61FB699C
:1024C00003F007039B000F2202FA03F3DB43BA6910
:1024D0001340BB613B681A69FB6903F007039B006B
:1024E00002FA03F3BA691343BB61FB69DA087B683C
:1024F0000832B96943F822107B681B68BB61FB692D
:102500005B00032202FA03F3DB43BA691340BB61A9
:102510003B685B6803F00302FB695B0002FA03F3AC
:10252000BA691343BB617B68BA691A603B685B6830
:1025300003F44033002B00F0B4800023FB60604BB9
:102540005B6C5F4A43F4804353645D4B5B6C03F404
:102550008043FB60FB685B4AFB699B08023352F8CF
:102560002330BB61FB6903F003039B000F2202FAD7
:1025700003F3DB43BA691340BB617B68524A934261
:102580002BD07B68514A934225D07B68504A9342B6
:102590001FD07B684F4A934219D07B684E4A9342C2
:1025A00013D07B684D4A93420DD07B684C4A9342CE
:1025B00007D07B684B4A934201D107230EE00823E2
:1025C0000CE006230AE0052308E0042306E00323C9
:1025D00004E0022302E0012300E00023FA6902F094
:1025E000030292009340BA691343BB613549FB690A
:1025F0009B080233BA6941F823203B4B9B68BB61BF
:102600003B69DB43BA691340BB613B685B6803F419
:102610008013002B03D0BA693B691343BB61324A74
:10262000BB699360304BDB68BB613B69DB43BA69D4
:102630001340BB613B685B6803F40013002B03D0BD
:10264000BA693B691343BB61274ABB69D360264B18
:102650005B68BB613B69DB43BA691340BB613B68A4
:102660005B6803F40033002B03D0BA693B69134362
:10267000BB611D4ABB6953601B4B1B68BB613B6957
:10268000DB43BA691340BB613B685B6803F480338A
:10269000002B03D0BA693B691343BB61124ABB6983
:1026A0001360FB690133FB61FB690F2B7FF690AE72
:1026B00000BF00BF2437BD465DF8047B704700BFF4
:1026C000003802400038014000000240000402408F
:1026D00000080240000C02400010024000140240BA
:1026E00000180240001C0240003C014080B483B04E
:1026F00000AF78600B467B8013467B707B78002BA5
:1027000003D07A887B689A6103E07B881A047B682F
:102710009A6100BF0C37BD465DF8047B704700002E
:1027200080B582B000AF0346FB80084B5A69FB8836
:102730001340002B06D0054AFB885361FB881846DE
:1027400000F006F800BF0837BD4680BD003C0140E0
:1027500080B483B000AF0346FB8000BF0C37BD469A
:102760005DF8047B7047000080B586B000AF7860EC
:1027700000237B6100F034FD38617B68002B01D1C0
:10278000012399E07B68022283F835207B680022D0
:1027900083F834207B681B681A687B681B6822F00A
:1027A00001021A600FE000F01BFD02463B69D31ADC
:1027B000052B08D97B6820225A657B68032283F8A1
:1027C0003520032378E07B681B681B6803F0010356
:1027D000002BE8D17B681B681B687B617A69384BEA
:1027E00013407B617B685A687B689B681A437B68EF
:1027F000DB681A437B681B691A437B685B691A4371
:102800007B689B691A437B68DB691A437B681B6A98
:1028100013437A6913437B617B685B6A042B07D19E
:102820007B68DA6A7B681B6B13437A6913437B61AD
:102830007B681B687A691A607B681B685B697B61CF
:102840007B6923F007037B617B685B6A7A691343CA
:102850007B617B685B6A042B17D17B689B6A7A6912
:1028600013437B617B68DB6A002B0ED0786800F035
:10287000C3FA0346002B08D07B6840225A657B6868
:10288000012283F83520012316E07B681B687A69F2
:102890005A61786800F07AFA0346FB607B68DB6D6A
:1028A0003F229A40FB689A607B6800225A657B68E9
:1028B000012283F83520002318461837BD4680BD15
:1028C0003F8010F080B586B000AFF860B9607A60E4
:1028D0003B600023FB75FB689B6D3B61FB6893F8D5
:1028E0003430012B01D1022340E0FB68012283F840
:1028F0003420FB6893F83530DBB2012B2FD1FB6815
:10290000022283F83520FB6800225A653B687A680A
:10291000B968F86800F00CFAFB68DB6D3F229A405A
:102920003B699A60FB681B681A68FB681B6842F089
:1029300016021A60FB681B6C002B07D0FB681B6833
:102940001A68FB681B6842F008021A60FB681B6883
:102950001A68FB681B6842F001021A6005E0FB6818
:10296000002283F834200223FB75FB7D18461837BC
:10297000BD4680BD80B586B000AF78600023BB60E7
:102980008E4B1B688E4AA2FB03239B0A7B617B68EC
:102990009B6D3B613B691B68FB607B68DB6D0822BC
:1029A0009A40FB681340002B1AD07B681B681B6899
:1029B00003F00403002B13D07B681B681A687B6844
:1029C0001B6822F004021A607B68DB6D08229A40C3
:1029D0003B699A607B685B6D43F001027B685A65D6
:1029E0007B68DB6D01229A40FB681340002B12D0FC
:1029F0007B681B685B6903F08003002B0BD07B684E
:102A0000DB6D01229A403B699A607B685B6D43F005
:102A100002027B685A657B68DB6D04229A40FB6882
:102A20001340002B12D07B681B681B6803F0020365
:102A3000002B0BD07B68DB6D04229A403B699A60C7
:102A40007B685B6D43F004027B685A657B68DB6DD5
:102A500010229A40FB681340002B43D07B681B6810
:102A60001B6803F00803002B3CD07B68DB6D102251
:102A70009A403B699A607B681B681B6803F480235B
:102A8000002B18D07B681B681B6803F40023002B05
:102A900008D17B681B6C002B24D07B681B6C78688A
:102AA00098471FE07B689B6C002B1BD07B689B6C5E
:102AB0007868984716E07B681B681B6803F480738E
:102AC000002B07D17B681B681A687B681B6822F0A3
:102AD00008021A607B681B6C002B03D07B681B6CA0
:102AE000786898477B68DB6D20229A40FB6813402A
:102AF000002B00F08F807B681B681B6803F01003BD
:102B0000002B00F087807B68DB6D20229A403B69B8
:102B10009A607B6893F83530DBB2052B36D17B6841
:102B20001B681A687B681B6822F016021A607B68B3
:102B30001B685A697B681B6822F080025A617B68B7
:102B40001B6C002B03D17B689B6C002B07D07B6830
:102B50001B681A687B681B6822F008021A607B6891
:102B6000DB6D3F229A403B699A607B68012283F8C3
:102B700035207B68002283F834207B681B6D002B96
:102B80007ED07B681B6D7868984779E07B681B680E
:102B90001B6803F48023002B1DD07B681B681B6817
:102BA00003F40023002B0DD17B685B6C002B31D02C
:102BB0007B685B6C786898472CE000BF1C000020A5
:102BC000B5814E1B7B68DB6B002B23D07B68DB6BF6
:102BD000786898471EE07B681B681B6803F4807365
:102BE000002B0FD17B681B681A687B681B6822F07A
:102BF00010021A607B68012283F835207B6800226E
:102C000083F834207B68DB6B002B03D07B68DB6BA5
:102C1000786898477B685B6D002B32D07B685B6D72
:102C200003F00103002B22D07B68052283F83520B6
:102C30007B681B681A687B681B6822F001021A60B7
:102C4000BB680133BB607A699A4207D37B681B6813
:102C50001B6803F00103002BF2D100E000BF7B688A
:102C6000012283F835207B68002283F834207B68BA
:102C7000DB6C002B05D07B68DB6C7868984700E044
:102C800000BF1837BD4680BD80B487B000AFF86084
:102C90000B467A60FB720023FB75FB6893F83430B7
:102CA000012B01D102233DE0FB68012283F834208F
:102CB000FB6893F83530DBB2012B2CD1FB7A052B66
:102CC00026D801A252F823F0E12C0008E92C0008D4
:102CD000F12C0008F92C0008012D0008092D00082E
:102CE000FB687A68DA6318E0FB687A681A6414E0B3
:102CF000FB687A685A6410E0FB687A689A640CE0B2
:102D0000FB687A68DA6408E0FB687A681A6504E0B0
:102D10000123FB7501E00123FB75FB68002283F8AA
:102D20003420FB7D18461C37BD465DF8047B704798
:102D300080B485B000AFF860B9607A603B60FB6832
:102D40001B681A68FB681B6822F480221A60FB6803
:102D50001B683A685A60FB689B68402B08D1FB6887
:102D60001B687A689A60FB681B68BA68DA6007E0DB
:102D7000FB681B68BA689A60FB681B687A68DA604F
:102D800000BF1437BD465DF8047B704780B485B042
:102D900000AF78607B681B68DBB2103B144AA2FB73
:102DA00003231B09FB60134AFB6813441B781A4674
:102DB0007B68DA65FB68032B09D97B681B6823F401
:102DC0007F7323F003031A1D7B689A6507E07B6815
:102DD0001B6823F47F7323F003037A6893657B6891
:102DE0009B6D18461437BD465DF8047B704700BFE5
:102DF000ABAAAAAAFC85040880B485B000AF7860AD
:102E00000023FB737B689B6ABB607B689B69002B1C
:102E10001FD1BB68032B56D801A252F823F000BF84
:102E2000312E0008432E0008312E0008C72E00085E
:102E30007B68DB6A03F08073002B46D00123FB73B1
:102E400043E07B68DB6AB3F1C07F40D10123FB73B1
:102E50003DE07B689B69B3F5005F21D1BB68032B24
:102E600037D801A252F823F0792E00087F2E0008EF
:102E7000792E0008912E00080123FB7330E07B6857
:102E8000DB6A03F08073002B25D00123FB7322E063
:102E90007B68DB6AB3F1C07F1FD10123FB731CE0A9
:102EA000BB68022B03D9BB68032B03D018E00123B6
:102EB000FB7315E07B68DB6A03F08073002B0ED098
:102EC0000123FB730BE000BF0AE000BF08E000BF76
:102ED00006E000BF04E000BF02E000BF00E000BF6A
:102EE000FB7B18461437BD465DF8047B704700BF76
:102EF00080B485B000AF78607B6803F00703FB60A7
:102F00000C4BDB68BB60BA684FF6FF031340BB6035
:102F1000FB681A02BB68134343F0BF6343F40033FA
:102F2000BB60044ABB68D36000BF1437BD465DF880
:102F3000047B704700ED00E080B400AF044BDB6819
:102F40001B0A03F007031846BD465DF8047B704773
:102F500000ED00E080B483B000AF0346FB7197F949
:102F60000730002B0BDBFB7903F01F02074997F9B1
:102F700007305B09012000FA02F241F8232000BF6C
:102F80000C37BD465DF8047B704700BF00E100E0F0
:102F900080B483B000AF03463960FB7197F9073006
:102FA000002B0ADB3B68DAB20C4997F907301201B3
:102FB000D2B20B4483F800230AE03B68DAB2084936
:102FC000FB7903F00F03043B1201D2B20B441A76D3
:102FD00000BF0C37BD465DF8047B704700E100E0A0
:102FE00000ED00E080B489B000AFF860B9607A60AD
:102FF000FB6803F00703FB61FB69C3F10703042BC4
:1030000028BF0423BB61FB690433062B02D9FB698B
:10301000033B00E000237B614FF0FF32BB6902FA03
:1030200003F3DA43BB681A407B699A404FF0FF31E3
:103030007B6901FA03F3D9437B680B4013431846BD
:103040002437BD465DF8047B7047000080B582B030
:1030500000AF78607B68013BB3F1807F01D301232F
:103060000FE00A4A7B68013B53600F214FF0FF30AD
:10307000FFF78EFF054B00229A60044B07221A606F
:10308000002318460837BD4680BD00BF10E000E0B1
:1030900080B582B000AF78607868FFF729FF00BF85
:1030A0000837BD4680BD80B586B000AF0346B96025
:1030B0007A60FB7300237B61FFF73EFF78617A68DB
:1030C000B9687869FFF78EFF024697F90F3011460D
:1030D0001846FFF75DFF00BF1837BD4680BD80B5BD
:1030E00082B000AF0346FB7197F907301846FFF72F
:1030F00031FF00BF0837BD4680BD80B582B000AF4C
:1031000078607868FFF7A2FF034618460837BD4687
:1031100080BD000080B500AF0E4B1B680D4A43F424
:10312000007313600B4B1B680A4A43F480631360FF
:10313000084B1B68074A43F4807313600320FFF7B2
:10314000A7FF002000F008F8FEF790FB00231846C8
:1031500080BD00BF003C024080B582B000AF786007
:10316000124B1A68124B1B7819464FF47A73B3FB53
:10317000F1F3B2FBF3F31846FFF7BFFF0346002B52
:1031800001D001230EE07B680F2B0AD8002279685A
:103190004FF0FF30FFF787FF064A7B68136000237C
:1031A00000E0012318460837BD4680BD1C00002002
:1031B000180000201400002080B400AF064B1B78DC
:1031C0001A46064B1B681344044A136000BFBD46F1
:1031D0005DF8047B704700BF180000203416002003
:1031E00080B400AF034B1B681846BD465DF8047BF6
:1031F000704700BF3416002080B584B000AF7860FF
:10320000FFF7EEFFB8607B68FB60FB68B3F1FF3F40
:1032100005D00A4B1B781A46FB681344FB6000BFBD
:10322000FFF7DEFF0246BB68D31AFA689A42F7D866
:1032300000BF00BF1037BD4680BD00BF1800002092
:1032400080B582B000AF78607B68002B01D101238C
:103250001CE07B685B79DBB2002B05D17B68002228
:103260001A717868FEF772FA7B6802225A717B68DD
:103270001B681A687B681B6842F004021A607B684E
:1032800001225A717B6800229A6000231846083791
:10329000BD4680BD80B584B000AF78600023FB6080
:1032A0007B681B685B68BB60BB6803F02003002B76
:1032B00005D07B6810229A600123FB6009E0BB689F
:1032C00003F04003002B04D07B6808229A6001239E
:1032D000FB60FB68012B0BD17B6804225A71786874
:1032E00000F037F87B681B686FF060025A6022E0DC
:1032F000BB6803F00103002B1DD07B681B681A68B4
:103300007B681B6822F008021A607B681B689A6859
:103310007B68DA607B685B79DBB2042B0BD07B685F
:1033200001225A717B6800221A717B68DB6819469A
:10333000786800F003F81037BD4680BD80B483B0D4
:1033400000AF7860396000BF0C37BD465DF8047B84
:10335000704780B483B000AF786000BF0C37BD46C3
:103360005DF8047B7047000080B400AF064BD3F8D3
:103370008830054A43F47003C2F8883000BFBD4668
:103380005DF8047B704700BF00ED00E0DFF834D04B
:10339000FFF7EAFF0C480D490D4A002302E0D4581C
:1033A000C4500433C4188C42F9D30A4A0A4C00238F
:1033B00001E013600432A242FBD3FCF745FFFDF7A6
:1033C0007FFB704700000220000000200801002061
:1033D00018C7040808010020789A0020FEE780B58D
:1033E00082B000AF78607B68002B02D113F0AEF999
:1033F00078607B68002B01D1002301E07B681B69AA
:1034000018460837BD4680BD80B582B000AF7860F1
:103410007B68002B02D113F099F978607B68002B50
:1034200001D1002301E07B685B6918460837BD467F
:1034300080BD80B582B000AF78607B68002B02D180
:1034400013F084F978607B68002B01D1002301E040
:103450007B68DB6918460837BD4680BD80B582B001
:1034600000AF78607B68002B02D113F06FF97860B1
:103470007B68002B01D1002301E07B681B6A1846A2
:103480000837BD4680BD80B582B000AF78607B68EC
:10349000002B02D113F05AF978607B689B681846BC
:1034A0000837BD4680BD80B582B000AF78607B68CC
:1034B000002B02D113F04AF978607B68002B01D110
:1034C000002307E07B68D3F85431002BCCBF0123E5
:1034D0000023DBB218460837BD4680BD80B58CB0EE
:1034E00000AFF8600B467A60FB72FB68002B01D1DD
:1034F00001232FE0FB683B61FB687B61FB7A3B7635
:103500000023FB617B683B6297F8283023F00103BE
:1035100087F8283097F8283023F0040387F82830FC
:1035200097F8283023F0020387F828300B4B1B68EC
:103530007B620A4A07F11003136007F11003184673
:1035400000F0E9F9034687F82F307B6A034A1360DD
:1035500097F82F3018463037BD4680BD381600200A
:1035600080B584B000AF786039607B68002B04D1EF
:103570003B685B681B68FB6006E07B681B68FB6060
:1035800002E0FB681B68FB60FB68002B03D0FB6854
:10359000DB68002BF5D0FB68002B01D1012319E07B
:1035A000FB68DB68002B01D1012313E03B6800229C
:1035B000DA60FB68DB683968F86898470123FB72BA
:1035C0003B681B7E03F00103DBB2002B01D000231C
:1035D000FB72FB7A18461037BD4680BD80B483B0BD
:1035E00000AF78607B681B6818460C37BD465DF8F5
:1035F000047B704780B483B000AF78607B685B6801
:1036000018460C37BD465DF8047B704780B483B024
:1036100000AF78607B681B7A03F07F03DBB218464B
:103620000C37BD465DF8047B704780B483B000AFB3
:1036300078607B681B6918460C37BD465DF8047BD3
:10364000704780B483B000AF78607B68DB68184651
:103650000C37BD465DF8047B7047000080B485B030
:1036600000AF78600F4B1B68FB6011E0FB685B6884
:103670007A689A4204D0FB681B687A689A4204D13F
:10368000FA68137E43F001031376FB685B69FB6005
:10369000FB68002BEAD100BF00BF1437BD465DF8C0
:1036A000047B70473816002090B585B000AFF860F5
:1036B000B9603B601346FB71F86801F04DF8FB6898
:1036C0009B689A7EC2F30502D2B2013202F03F0239
:1036D000D1B29A7E61F305029A76FB689B68DA683C
:1036E000FB689B689B7EC3F30503DBB219460B4660
:1036F0005B000B449B001946FB689C68104615F064
:103700000FFD0346E360FB689B68DB68002B01D17B
:1037100000BFFDE7FB689B68DA68FB689B689B7EDF
:10372000C3F30503DBB219460B465B000B449B0059
:103730000C3B1344BA681A60FB689B68DA68FB6844
:103740009B689B7EC3F30503DBB219460B465B0007
:103750000B449B000C3B1344FA791A72FB689B687C
:10376000DA68FB689B689B7EC3F30503DBB21946EE
:103770000B465B000B449B000C3B13443A685A60B9
:10378000FB689B68DA68FB689B689B7EC3F3050354
:10379000DBB219460B465B000B449B000C3B134409
:1037A00018461437BD4690BD80B582B000AF786032
:1037B0007B681B7A012B3BD07B681B7A022B37D0AE
:1037C0007B681B7A032B33D07B681B7A042B2FD0AA
:1037D0007B681B7A052B2BD07B681B7A062B27D0A6
:1037E0007B681B7A072B23D07B681B7A082B1FD0A2
:1037F0007B681B7A092B1BD07B681B7A0A2B17D09E
:103800007B681B7A0B2B13D07B681B7A0C2B0FD099
:103810007B681B7A0D2B0BD07B681B7A0E2B07D095
:103820007B681B7A0F2B03D07B681B7A102B04D18B
:103830007868FFF7FAFE034600E0002318460837D1
:10384000BD4680BD80B582B000AF78607B681B7AD2
:10385000152B13D07B681B7A142B0FD07B681B7A37
:10386000162B0BD07B681B7A182B07D07B681B7A32
:10387000172B03D07B681B7A192B04D17868FFF7CC
:10388000D4FE034600E0002318460837BD4680BD3D
:1038900080B584B000AF78600B467B807B681B7A74
:1038A000132B0ED17868FFF7C0FEF860FB68B3F900
:1038B0000030B7F902209342B8BF13461AB2FB6832
:1038C0001A8000BF1037BD4680BD80B483B000AF02
:1038D000786039607B689B68002B01D1002314E07D
:1038E0007B689B689B7EC3F30503DBB21A463B688B
:1038F000934201D3002308E07B689B68D9683A684B
:1039000013465B0013449B000B4418460C37BD461E
:103910005DF8047B704780B586B000AF786000F03A
:1039200029F9B860BB68002B1FD0BB681B689B6877
:10393000002B08D0BB681B689B68BA6810687A685F
:10394000127A114698477B681B7E03F00203DBB2B4
:10395000002B01D00123C4E07B681B7E03F0010330
:10396000DBB2002B01D00023BBE00123FB757B6899
:103970005B6800211846FFF7A8FF38610023FB6051
:1039800038E03B691B68002B2AD03B691B7A5BB28D
:10399000002B25DA3B691B7A802B07D03B691B7A09
:1039A00023F080037A68127A934219D13B695A68EE
:1039B0007B68DA603B691B68786898477B681B7E88
:1039C00003F00203DBB2002B01D0012389E07B6806
:1039D0001B7E03F00103DBB2002B01D0002380E04B
:1039E000FB680133FB607B685B68F9681846FFF78A
:1039F0006CFF38613B69002B02D0FB7D012BC0D0EE
:103A000079680020FFF7ACFD0346FB75FB7D002BBA
:103A100007D07B685B6800211846FFF756FF034616
:103A200000E000233B610023FB6036E03B691B683C
:103A3000002B28D03B691B7A5BB2002B23DB3B6950
:103A40001B7A002B05D03B691A7A7B681B7A9A4255
:103A500019D13B695A687B68DA603B691B687868F2
:103A600098477B681B7E03F00203DBB2002B01D07A
:103A7000012336E07B681B7E03F00103DBB2002BE1
:103A800001D000232DE0FB680133FB607B685B689D
:103A9000F9681846FFF719FF38613B69002B02D01F
:103AA000FB7D012BC2D0FB7D012B19D17B685B68AC
:103AB0005B68002B14D0786800F018F80346002BE0
:103AC0000ED07B685B685A687B685A607868FFF73D
:103AD00022FF0346FB75FB7D012B01D0002300E094
:103AE000FB7D18461837BD4680BD000080B582B00A
:103AF00000AF78607B681B7E03F00403DBB2002B11
:103B000001D000232FE07B681B7A233B012B01D8D7
:103B1000012328E000BF7B685B684FF480411846B2
:103B200000F0BBFD034683F00103DBB2002B01D0A4
:103B3000002318E07B681B7A113B1B2B8CBF0122F2
:103B40000022D2B2002A0DD1094A22FA03F303F06F
:103B50000103002B14BF01230023DBB2002B01D093
:103B6000002300E0012318460837BD4680BD00BF92
:103B7000FF270F0B80B400AF034B1B681846BD46F0
:103B80005DF8047B704700BF3C16002080B483B012
:103B900000AF78607B68002B01D1002302E07B68D6
:103BA0001B681B7818460C37BD465DF8047B7047D0
:103BB00080B584B000AF786039607B68002B38D066
:103BC0007A68537943F0020353713B4B1B687A6860
:103BD0009A4202D1394B00221A607B681B681B781D
:103BE000012B04D07B681B681B78022B60D13B68DB
:103BF000002B04D07B685B6B3A689A4202D17B68E9
:103C000000225A633B68002B04D07B689B6A3A68A9
:103C10009A4202D17B6800229A623B68002B04D052
:103C20007B68DB6A3A689A4242D17B680022DA629A
:103C30003EE0002012F034FEF86033E0FA68537979
:103C400043F002035371FB681B681B78012B04D0FF
:103C5000FB681B681B78022B20D13B68002B04D02B
:103C6000FB685B6B3A689A4202D1FB6800225A6398
:103C70003B68002B04D0FB689B6A3A689A4202D1E9
:103C8000FB6800229A623B68002B04D0FB68DB6A69
:103C90003A689A4202D1FB680022DA62F86812F0B0
:103CA000FFFDF860FB68002BC8D1044B00221A60AE
:103CB00000BF1037BD4680BD3C16002040160020D6
:103CC00080B582B000AF78607A68537923F0010341
:103CD000537112F015FE02467B68DA6412F010FE92
:103CE00002467B689A6400BF0837BD4680BD80B439
:103CF00083B000AF786039607B68002B06D13B68E9
:103D000000221A803B6800225A801CE07B681B68F6
:103D10001B78012B0DD07B681B681B78032B08D008
:103D20003B684FF6FF721A803B684FF6FF725A806D
:103D300009E07B68B3F908203B681A807B68B3F917
:103D40000A203B685A800C37BD465DF8047B7047FB
:103D500080B483B000AF78607B68002B01D1002372
:103D600011E07B681B681B78012B06D07B681B6801
:103D70001B78032B01D0002305E07B6893F84430C7
:103D8000C3F30303DBB218460C37BD465DF8047B72
:103D9000704780B483B000AF78607B68002B01D19E
:103DA00000230DE07B681B681B78012B06D07B6825
:103DB0001B681B78032B01D0002301E07B681B6B81
:103DC00018460C37BD465DF8047B704780B483B05D
:103DD00000AF786039603B6800221A803B6800229F
:103DE0005A807B68002B14D07B681B681B78012BE2
:103DF00004D07B681B681B78032B0BD17B68B3F95D
:103E000018203B681A807B68B3F91A203B685A80F7
:103E100000E000BF0C37BD465DF8047B704780B4FE
:103E200083B000AF78607B68002B05D07A68537947
:103E300043F00803537100E000BF0C37BD465DF846
:103E4000047B704780B400AF034B1B681846BD4627
:103E50005DF8047B704700BF4016002080B485B039
:103E600000AF78600B46FB707B68002B01D100230C
:103E70002FE0FB78032B05D00C2B07D17B68DB8C64
:103E8000FB8105E07B689B8CFB8101E0002320E047
:103E90007B681B685B7D7B810023BB8113E0BA8953
:103EA000FB8913449BB2BB81B7F90E30B7F90A20E6
:103EB000C2F1640202FB03F3094A82FB03125211AE
:103EC000DB17D31AFB81B7F90E30002BE7D1B7F916
:103ED0000C3018461437BD465DF8047B704700BFB0
:103EE0001F85EB5180B483B000AF786039603B68C8
:103EF000B3F900207B681A803B68B3F902207B6825
:103F00005A803B68B3F904207B689A803B68B3F918
:103F100006207B68DA8000BF0C37BD465DF8047B65
:103F2000704780B58CB000AFF8600B467A607B813B
:103F3000FB689B884FF6FF72934237D10023FB62E8
:103F40002CE0FB681A68FB6ADB0013447B617B6929
:103F50001B88C3F30D037B827A8A7B899A421AD12C
:103F60007B691B881BB2002B01DA022398E07B6976
:103F70001B8803F48043002B07D07B8A184616F079
:103F800047F802467B681A6003E07B687A695268EA
:103F90001A60012384E0FB6A0133FB62FB68DB7972
:103FA0001A46FB6A9342CCD3002379E0FB68DB79A5
:103FB000002B01D1002373E0FB68DB79012B48D98A
:103FC000FB681A68FB68DB799B0013447B627B6AA1
:103FD0003B620023BB6235E0BB6A5B003A6A134474
:103FE0001B88C3F30D03FB83FA8B7B899A4226D18E
:103FF000BB6A5B003A6A13441B881BB2002B01DAD0
:1040000002234DE0BB6A5B003A6A13441B8803F449
:104010008043002B07D0FB8B184615F0F9FF0246B2
:104020007B681A6009E0FB681B68BB61BB6A9B0088
:10403000BA691A447B6812681A60012330E0BB6ACF
:104040000133BB62FB68DB791A46BB6A9342C3D378
:1040500025E0FB689B88C3F30D027B899A421ED141
:10406000FB689B881BB2002B01DA022318E0FB6877
:104070009B8803F48043002B0BD0FB689B88C3F321
:104080000D039BB2184615F0C3FF02467B681A6009
:1040900003E07B68FA6812681A60012300E00023DD
:1040A00018463037BD4680BD80B582B000AF78601D
:1040B000044A0021786807F0ABFE00BF0837BD4610
:1040C00080BD00BFFFFF0F0080B584B000AF7860F7
:1040D000396001223968786808F09EF80346FB6071
:1040E000FB681BB218461037BD4680BD80B584B052
:1040F00000AF7860396004223968786808F08CF87D
:104100000346FB60FB681BB218461037BD4680BDF6
:1041100080B584B000AF786039600922396878686A
:1041200008F07AF80346FB60FB68DBB218461037EC
:10413000BD4680BD80B584B000AF7860396069222B
:104140003968786808F068F80346FB60FB681BB2C2
:1041500018461037BD4680BD80B584B000AF78608A
:1041600039606A223968786808F056F80346FB60BF
:10417000FB681BB218461037BD4680BD80B584B0C1
:1041800000AF7860396010223968786808F044F828
:104190000346FB60FB681BB218461037BD4680BD66
:1041A00080B584B000AF78603960122239687868D1
:1041B00008F032F80346FB60FB681BB21846103764
:1041C000BD4680BD80B584B000AF786039602022E4
:1041D0003968786808F020F80346FB60BB89184608
:1041E0001037BD4680BD80B584B000AF78603960BF
:1041F00021223968786808F00FF80346FB60FB68F5
:10420000DBB218461037BD4680BD80B584B000AF24
:104210007860396030223968786807F0FDFF03461E
:10422000FB60BB8918461037BD4680BD80B584B0A1
:1042300000AF7860396031223968786807F0ECFFA8
:104240000346FB60FB68DBB218461037BD4680BDF5
:1042500080B584B000AF7860396032223968786800
:1042600007F0DAFF0346FB60FB681BB21846103705
:10427000BD4680BD80B584B000AF7860396034221F
:104280003968786807F0C8FF0346FB60FB68002BBD
:1042900014BF01230023DBB218461037BD4680BD92
:1042A00080B584B000AF78603960402239687868A2
:1042B00007F0B2FF0346FB60FB681BB218461037DD
:1042C000BD4680BD80B584B000AF786039604322C0
:1042D0003968786807F0A0FF0346FB60FB681BB2F3
:1042E00018461037BD4680BD80B584B000AF7860F9
:1042F000396044223968786807F08EFF0346FB6016
:10430000BB8918461037BD4680BD80B584B000AF6C
:104310007860396045223968786807F07DFF034688
:10432000FB60FB68DBB218461037BD4680BD80B528
:1043300084B000AF786039600B223968786807F084
:104340006BFF0346FB60FB681BB218461037BD4687
:1043500080BD80B584B000AF7860396017223968BD
:10436000786807F059FF0346FB60FB68002B14BF19
:1043700001230023DBB218461037BD4680BD80B54F
:1043800084B000AF7860396060223968786807F0DF
:1043900043FF0346FB60FB68DBB218461037BD469F
:1043A00080BD80B584B000AF786039600A2239687A
:1043B000786807F031FF0346FB60FB689BB2184644
:1043C0001037BD4680BD000080B586B000AF244BDD
:1043D0001B78002B3FD114F035FE16F0A5F813F032
:1043E00013FF12F0C3FA1DF095FD0BF0B4FF07F0B8
:1043F0004DFC4FF4B4711B4814F027FA5C211A48A5
:1044000014F023FA09F01AFF10F0E6FA012010F078
:10441000DFF9164B7B617B693B613B691B78C32BE2
:1044200003D13B6901331B78812B114B7B603B1D12
:10443000FB60FB681B78112B0CBF01230023FB7270
:10444000FB7A002B01D000BFFDE711F0E9FA044B25
:1044500001221A7000E000BF1837BD4680BD00BFC2
:1044600044160020B4160020C01600201480040852
:104470004433221180B584B000AF78607968064873
:1044800001F042FAF860F86801F0F3FAFB681846A8
:104490001037BD4680BD00BF1486040880B58AB0C1
:1044A00000AF78603960786803F0A4F9034687F8B4
:1044B00027303B6803F00103002B02D0786804F03A
:1044C000B4FB7B689A693B681A437B689A613B68D6
:1044D00003F00103002B1AD00221786800F012F9D2
:1044E0000346002B13D0786800F022F938623B6A4B
:1044F000002B0CD0386A1DF005FE386A1DF093FEC3
:10450000F861FB69002B02D0F86904F08EFB786833
:1045100003F070F903461A4697F82730934204D106
:104520003B6803F0C073002B09D0786809F016FCD3
:104530000346184603F086F9786803F083F93B6870
:1045400003F01003002B13D007F10C0207F1140342
:104550001946786806F06EF807F114031946786872
:1045600004F02EFB07F10C031946786804F028FBD1
:1045700000BF2837BD4680BD80B588B000AF7860E9
:104580003960786803F036F90346FB773B6803F03F
:104590001003002B13D007F10C0207F11403194686
:1045A000786806F047F807F114031946786804F0B4
:1045B00007FB07F10C031946786804F001FB7B68E0
:1045C0009A693B68DB431A407B689A613B6803F059
:1045D0000103002B12D0786804F027FB786803F001
:1045E00009F90346002B09D0786809F0B7FB0346A8
:1045F000184603F027F9786803F024F9786803F087
:10460000F9F803461A46FB7F934204D13B6803F056
:10461000C073002B06D0786809F0A0FB034618464B
:1046200003F010F900BF2037BD4680BD80B584B0CF
:1046300000AF78600B467B807B689A8B7B88134346
:10464000FB817B689B8BFA899A4204D0FB891946CF
:10465000786801F01EF800BF1037BD4680BD80B5F8
:1046600084B000AF78600B467B807B689B8B1AB26E
:10467000B7F90230DB431BB213401BB2FB817B68EE
:104680009B8BFA899A4204D0FB891946786801F01D
:1046900000F800BF1037BD4680BD80B483B000AFC6
:1046A000786039607B689A693B6813403A689A423F
:1046B0000CBF01230023DBB218460C37BD465DF862
:1046C000047B704780B483B000AF786039607B684A
:1046D0009A693B681340002B14BF01230023DBB20F
:1046E00018460C37BD465DF8047B704780B483B034
:1046F00000AF78607B689B8B18460C37BD465DF831
:10470000047B704780B483B000AF78600B467B8039
:104710007B689A8B7B8813409BB2002B14BF0123CC
:104720000023DBB218460C37BD465DF8047B7047AA
:1047300080B483B000AF78607B689B68002B03D0A7
:104740007B689B689B6800E0002318460C37BD46D9
:104750005DF8047B7047000080B582B000AF7860E0
:104760007B689B68002B28D1154B1B680133144ACA
:1047700013601C2014F076FC02467B689A607B680C
:104780009B68002B01D100BFFDE77B689B68002B75
:1047900012D07B689B681C21184615F099F87B683D
:1047A0009A68537E43F00F0353767B689A68137EB2
:1047B00043F00303137600E000BF0837BD4680BD19
:1047C0004816002080B483B000AF786039607B6801
:1047D000002B01D1002307E07B681B683A689A42EE
:1047E0000CBF01230023DBB218460C37BD465DF831
:1047F000047B704790B585B000AF786039603B6846
:104800005B68FB60FB68002B3FD0F86805F0CEFAD0
:1048100003467B81F86805F02AFA03463B81FB6872
:10482000B3F912309CB20021F868FFF7A7FC0346E9
:104830009BB223449AB23B89D31A9BB21AB23B680B
:104840005A823B68B3F912309BB2013B9BB21AB259
:104850003B68DA82FB68B3F910309CB20021F8683B
:10486000FFF79EFC03469BB223449AB27B89D31A7E
:104870009BB21AB23B681A823B68B3F910309BB204
:10488000013B9BB21AB23B689A823B6802229A6152
:104890003B689B6943F480523B689A61FB68002B3C
:1048A00005D03B689B6943F400523B689A61FB6802
:1048B000002B05D03B689B6943F440723B689A61CA
:1048C0003B689B6943F004023B689A613B689B69C3
:1048D00043F010023B689A613B689B6943F02002F9
:1048E0003B689A613B689B6943F040023B689A6170
:1048F0003B689B6943F400623B689A61FB68002B4C
:1049000005D03B689B6943F400423B689A6100BF55
:104910001437BD4690BD80B584B000AF7860396073
:104920003868FEF79BFE002007F066FC3868FFF74A
:10493000BBFB012007F060FC0021386812F0D4F8BE
:104940003868FFF7F5FEF860FB68002B02D0386886
:104950001DF05BFB3B689B68002B25D03B689B6888
:104960001B68002B09D03B689B681B68184614F035
:10497000A9FB3B689B6800221A603B689B68DB6868
:10498000002B09D03B689B68DB68184614F09AFB43
:104990003B689B680022DA603B689B68184614F00D
:1049A00091FB3B6800229A6000BF1037BD4680BD76
:1049B00080B5B6B000AF78607868FEF727FE034692
:1049C00087F8D7307868FEF709FEC7F8D00097F867
:1049D000D730122B40F096807868FEF726FEC7F895
:1049E000AC00D7F8AC301B78022B00F034820021E9
:1049F000D7F8D000FFF7ADFC0346002B04D0D7F862
:104A0000AC3002221A7027E20021D7F8D000FFF75D
:104A10008EFC0346A7F8AA300021D7F8D000FFF794
:104A200089FB0346A7F8A8300021D7F8D000FFF78C
:104A300093FB0346A7F8A630D7F8D03003F1100255
:104A400007F19C0311461846FFF74CFAB7F99C3062
:104A50009AB2B7F8A830D31A9BB21BB2A7F89C3011
:104A6000B7F9A0309AB2B7F8A83013449BB21BB282
:104A7000A7F8A030B7F99E309AB2B7F8A630D31A8B
:104A80009BB21BB2A7F89E30B7F9A2309AB2B7F822
:104A9000A63013449BB21BB2A7F8A230D7F8AC30B3
:104AA0005B68B7F9AA2007F19C01184612F0DBFEFB
:104AB000034683F00103DBB2002B04D0D7F8AC30FF
:104AC00001221A70C8E10021D7F8D000FFF78BFB54
:104AD0000346FC2B04D8D7F8AC3001221A70BBE196
:104AE0000021D7F8D000FFF74AFC0346FC2B04D87E
:104AF000D7F8AC3001221A70AEE1D7F8AC30002202
:104B00001A70A9E197F8D730152B40F0E780786844
:104B1000FEF798FEC7F8C00007F10C0318460FF027
:104B200049FC0021D7F8D000FFF7A4FB0346002B77
:104B300005D097F82F3043F0010387F82F3007F1A5
:104B40000C031A460021D7F8D00001F0ABFC00217D
:104B5000D7F8D000FFF7EEFA0346A7F8BE300021E1
:104B6000D7F8D000FFF7F8FA0346A7F8BC30D7F81B
:104B7000D03003F1100207F1940311461846FFF7F5
:104B8000B1F9B7F994309AB2B7F8BE30D31A9BB2E4
:104B90001BB2A7F89430B7F998309AB2B7F8BE3084
:104BA00013449BB21BB2A7F89830B7F996309AB26B
:104BB000B7F8BC30D31A9BB21BB2A7F89630B7F93E
:104BC0009A309AB2B7F8BC3013449BB21BB2A7F824
:104BD0009A3007F14403D7F8C010184602F0A8F83D
:104BE0009F4BBB640023FB6407F10C037B6507F15B
:104BF00094033B650023BB6707F144031A461A215F
:104C0000D7F8D000FEF76AFC0021D7F8D000FFF7F4
:104C1000A0FB0346002B05D0B7F90C30002B01D0C8
:104C2000012300E0002387F8BB3097F8BB3003F086
:104C3000010387F8BB30FB69C7F8B43097F8BB3085
:104C4000002B01D00023FB6107F1940207F10C0354
:104C50001946D7F8C0000FF0F3FB97F8BB30002BD4
:104C600033D0182014F088FAC7F8B000D7F8D03045
:104C700003F11001B7F90C200023D7F8B0000DF0B4
:104C80008FFBD7F8D03003F580731946D7F8B00002
:104C90000CF0B8FFD7F8B430002B16D00023FB730C
:104CA000002387F82E30002387F83630002387F85A
:104CB0004230D7F8B430FB6107F1940207F10C03DE
:104CC0001946D7F8C0000FF0BBFB07F144031A46A2
:104CD0001B21D7F8D000FEF701FCBDE097F8D730D4
:104CE000182B40F0B9807868FEF7ACFDC7F8CC000F
:104CF000D7F8CC10D7F8D00000F0B4F80021D7F8DE
:104D0000D000FFF726FB0346002B14D0D7F8D03095
:104D100003F5807318460DF013F8C7F8C800D7F8EC
:104D2000C830002B07D0D7F8C8000DF031F8D7F8FD
:104D3000C80014F0CFFA0021D7F8D000FFF79AFA94
:104D40000346002B00F0888007F10C0318460FF093
:104D500031FB0023FB73002387F82630002387F8FC
:104D60003630002387F8423007F10C031A46002141
:104D7000D7F8D00001F096FB0021D7F8D000FFF75C
:104D8000D9F90346A7F8C6300021D7F8D000FFF7BD
:104D9000E3F90346A7F8C430D7F8D03003F1100286
:104DA00007F18C0311461846FFF79CF8B7F98C30D1
:104DB0009AB2B7F8C630D31A9BB21BB2A7F88C30A0
:104DC000B7F990309AB2B7F8C63013449BB21BB211
:104DD000A7F89030B7F98E309AB2B7F8C430D31A2A
:104DE0009BB21BB2A7F88E30B7F992309AB2B7F8DF
:104DF000C43013449BB21BB2A7F8923007F14403AE
:104E0000D7F8CC10184601F093FF154BBB64012373
:104E1000FB6407F10C037B6507F18C033B65002302
:104E2000BB6707F144031A461A21D7F8D000FEF7F2
:104E300055FB07F18C0207F10C031946D7F8CC009B
:104E40000FF0FEFA07F144031A461B21D7F8D000F1
:104E5000FEF744FB00E000BFD837BD4680BD00BF71
:104E60001486040880B5A8B000AF7860396007F1F7
:104E70008C0207F194031946786805F0DBFB07F113
:104E80009403184612F04BF90346002B07D107F1A3
:104E90008C03184612F043F90346002B62D007F149
:104EA00054031946786800F065F8034687F89F3088
:104EB00097F89F30012B57D107F10C03396818463A
:104EC00001F036FF2A4B3B6102237B6107F154035B
:104ED000FB614FF480333B6407F19403184612F0F2
:104EE0001EF90346002B18D007F19403BB6107F1AC
:104EF0000C031A461A217868FEF7F0FA07F19402BB
:104F000007F15403194638680FF09AFA07F10C03B9
:104F10001A461B217868FEF7E1FA07F18C03184660
:104F200012F0FDF80346002B1FD007F18C03BB6184
:104F300007F10C031A461A217868FEF7CFFA07F139
:104F40008C03BB6107F18C0207F1540319463868E2
:104F50000FF076FA07F10C031A461B217868FEF76A
:104F6000BDFA02E000BF00E000BFA037BD4680BD33
:104F70001486040890B585B000AF78603960386851
:104F80000FF018FA4FF480317868FFF72CF90346D8
:104F90001A463B68DA703B68DB78022B06D93C681E
:104FA0004FF480317868FFF70DF9A0804FF480311D
:104FB0007868FFF73BF903461A463B6883F82220DE
:104FC0003B6893F82230022B19D94FF4803178686E
:104FD000FFF73EF903461A463B681A843B68B3F96B
:104FE0002030002B07DD3C684FF480317868FFF7F4
:104FF0000CF9E08303E03B68002283F822204FF4A1
:1050000080317868FFF781F903461A463B6883F8D8
:1050100036203B6893F83630022B22D94FF480318A
:105020007868FFF73DF903461A463B68DA853B6826
:10503000B3F92E30002B10DD4FF480317868FFF784
:1050400041F903461A463B689A863C684FF4803122
:105050007868FFF749F9A08503E03B68002283F8F0
:1050600036204FF48031786807F074FD0346FB73F7
:10507000FB7BFC2B1FD83B68DB781A46FB7B02FBD3
:1050800003F31B12DAB23B68DA703B68DB781A462E
:10509000FB7B02FB03F31B12DAB23B6883F822208E
:1050A0003B68DB781A46FB7B02FB03F31B12DAB288
:1050B0003B6883F836203B68DB78002B09D13B68DE
:1050C00093F82230002B04D13B6893F83630002B44
:1050D0000AD04FF480317868FFF729F903461A4661
:1050E0003B681A80012300E0002318461437BD46B0
:1050F00090BD90B59BB000AF786039603868FEF71E
:1051000085FA034687F857303868FEF773FA386532
:1051100097F85730012B04D12021386DFFF786FA1C
:10512000B4E297F85730082B31D12021386DFFF7C2
:1051300096FA3868FEF738FB3862386AFEF729FEBF
:105140000346002B40F0A2820821386DFFF7A5FA34
:105150000346002B00F09A82386DFFF7C7FA03462A
:1051600003F00103002B04D10121386DFFF75EFA33
:1051700003E00121386DFFF772FA00221C21386D1F
:10518000FEF7ACF90346FB77FB7F012B7EE297F835
:105190005730032B04D12021386DFFF760FA75E2F8
:1051A00097F857302A2B19D1386D08F01BFEB862DA
:1051B00000237B660DE03B6D9B681A687B6E9B004D
:1051C00013441B687B62786A02F03CFB7B6E013300
:1051D0007B667A6EBB6A9A42EDD357E297F85730F6
:1051E0000D2B40F026810821386DFFF756FA034653
:1051F000002B30D03868FEF718FA03461B7887F882
:105200002E3097F82E30132B03D097F82E30112B19
:1052100004D10121386DFFF709FA0BE097F82E3021
:10522000142B03D097F82E30122B03D10121386DA7
:10523000FFF715FA97F82E300A2B00F0278200228C
:105240001C21386DFEF74AF9034687F82D3097F890
:105250002D30012B1AE24FF40161386DFFF71DFA72
:105260000346002B00F01282386D00F069FC034603
:1052700083F00103DBB2002B00F00882002387F8E3
:105280003530386D04F092FD03467B86386D04F0AE
:1052900031FE03463B863868FEF7C7F903461B78A4
:1052A00087F82F3097F82F30122B18D1386D04F073
:1052B000C6FC03469CB2386D02F007FF0346002B84
:1052C00000DA03339B101BB29BB223449BB21BB288
:1052D00097F835201946386D05F014F9D6E197F89E
:1052E0002F30112B18D1386D04F0A9FC03469CB265
:1052F000386D02F0EAFE0346002B00DA03339B1000
:105300001BB29BB2E31A9BB21BB297F83520194629
:10531000386D05F0F7F8B9E197F82F30132B41D12C
:10532000386D04F032FC034603F00303002B07D072
:10533000B7F93230002B1CDCB7F93030002B18DC09
:10534000386D04F07CFC03469CB2386D02F0BDFE63
:105350000346002B00DA03339B101BB29BB223449D
:105360009BB21BB297F835201946386D05F0CAF884
:105370008CE1386D04F04BFC03469CB2386D02F0B2
:1053800096FE0346002B00DA03339B101BB29BB240
:1053900023449BB21BB297F835201946386D05F0AF
:1053A0008DF873E197F82F30142B40F06F81386D32
:1053B00004F0EBFB034603F00303002B07D0B7F91F
:1053C0003230002B1CDCB7F93030002B18DC386D84
:1053D00004F035FC03469CB2386D02F076FE0346BD
:1053E000002B00DA03339B101BB29BB2E31A9BB273
:1053F0001BB297F835201946386D05F083F845E162
:10540000386D04F004FC03469CB2386D02F04FFE88
:105410000346002B00DA03339B101BB29BB2E31A46
:105420009BB21BB297F835201946386D05F046F847
:105430002CE197F857300E2B55D14FF48061386D21
:10544000FFF72BF90346002B03D00121386D05F03F
:105450007DF8002387F83730386DFFF769F9034688
:1054600018461CF0F8FE034687F837300223A7F8E9
:105470006230FEF77FFBF865FB6D002B03D13868C7
:10548000FEF792F9F865F86DFEF780FB034687F8A2
:10549000363097F83630022B03D097F83630042B8D
:1054A00005D1B7F8623043F00403A7F8623097F8EB
:1054B0003730002B0CD0B7F8623043F00803A7F860
:1054C0006230B7F862301946386DFFF7AFF8DDE0AB
:1054D000B7F862301946386DFFF7A8F80821386D23
:1054E000FFF7BDF8D2E097F85730092B04D14021DF
:1054F000386DFFF79BF8C9E097F857300A2B1FD19A
:105500004021386DFFF7ABF8386D04F028FB0346F7
:10551000022B40F0BB8007F10C0207F1140319467F
:10552000386D05F087F807F114031946386D03F05C
:1055300047FB07F10C031946386D03F041FBA5E06A
:1055400097F857300F2B04D10E21386DFFF787F8ED
:105550009CE097F85730292B32D10021386DFEF7A7
:10556000D7FD0346A7F844300021386DFEF719FF38
:105570000346A7F84230B7F84230002B03D1B7F901
:105580004430002B02D0386D02F05CF9386D08F021
:1055900029FCF8630023BB650DE03B6D9B681A682E
:1055A000BB6D9B0013441B68BB63B86B02F04AF9E8
:1055B000BB6D0133BB65BA6DFB6B9A42EDD365E001
:1055C00097F85730222B33D10021386DFEF77CFD40
:1055D0000346A7F84C300021386DFEF787FD0346DF
:1055E000A7F84A300021386DFEF792FD0346A7F870
:1055F00048300021386DFEF7D4FE0346A7F8463048
:10560000B7F84630002B0FD1B7F94830002B0BD13B
:10561000B7F94C3042F2D172934205D0B7F94A3013
:1056200042F2D172934231D1386D02F00BF92DE084
:1056300097F85730242B08D13A6D937F43F002033B
:105640009377386D02F0FEF820E097F85730132B6F
:105650000DD10021386D01F0CEFA0346A7F84E3087
:10566000B7F94E3019463868FEF712F90EE097F890
:105670005730152B07D097F85730182B03D097F8D1
:105680005730122B02D13868FFF792F96C37BD46BC
:1056900090BD80B594B002AF78600B467B807B688C
:1056A0009B8B7A889A4200F029817B689B8BFB86D2
:1056B0007B687A889A837A88FB8E1946786807F027
:1056C0001BF8034687F8353097F83530002B00F08B
:1056D00017814FF4007013F04FFD38634FF40071E1
:1056E000386B14F0F5F800237B6400233B64B7E0CB
:1056F0007B68DA683B6CDB001344FB627B68DA682A
:105700003B6CDB0013445B68C3F31703184607F0D8
:10571000E9F903467B857B68DA683B6CDB00134460
:105720005B68C3F31703184607F0E8F978627A8DCF
:105730007B88DB431340002B40F08A80FB6ADB79D7
:1057400003F00203DBB2002B40F08480FB6A1B688D
:1057500007F10C0267211846FEF7E3FB0346012B15
:105760007AD1FB683B620023FB6365E00023BB63E7
:1057700026E0BB6B1B013A6B13445B68FB61F86965
:1057800007F0B0F903467B83F86907F0B7F9786151
:10579000BB6B1B013A6B13441A893B6A1968FB6B9C
:1057A0005B000B441B889A4207D17A697B6A9A4254
:1057B00003D17A8B7B8D9A4207D2BB6B0133BB63DB
:1057C000BA6B7B6C9A42D4D300E000BFBA6B7B6C9F
:1057D0009A422ED13B6A99687B6C1B013A6B134449
:1057E0008AB21A803B6AD9687B6C1B013A6B1344FE
:1057F0008AB25A807B6C1B013A6B13443A6A526836
:10580000DA603B6A1A68FB6B5B001A447B6C1B0115
:10581000396B0B4412881A81FB6A5B68C3F317016A
:105820007B6C1B013A6B13440A465A607B6C013354
:105830007B64FB6B0133FB633B6A1A68FB6B5B00A9
:1058400013441B88002B08D07B6C1F2B8ED904E0DF
:1058500000BF02E000BF00E000BF3B6C01333B64CF
:105860007B68DB8BC3F30513DBB21A463B6C9342B8
:1058700003D27B6C1F2B7FF63BAF00233B6417E00A
:105880003B6C1B013A6B13445B68184607F036F912
:1058900038613B6C1B013A6B13447988FA8E009394
:1058A0000B463969786806F0E9FD3B6C01333B64CF
:1058B0003A6C7B6C9A42E3D3386B13F00BFD97F88C
:1058C0003530012B03D1786803F0AFF919E097F870
:1058D0003530032B07D14FF6FF724FF470217868F3
:1058E00006F0C0FB0DE097F83530022B09D178683F
:1058F00003F09BF9786801F02BFA02E000BF00E0AA
:1059000000BF4837BD4680BD90B587B000AF786016
:105910003960786800F090F97861786913F0A2FB3B
:1059200038613B69002B01D100239EE07969386919
:1059300013F0CEFF3B697A681A603B693A685A6097
:105940003B68002B53D110F001FFF860FB68002B7F
:1059500004D1386913F0B6FB002386E0FB68DB68EE
:10596000002B0DD1042013F07DFB0246FB68DA60AA
:10597000FB68DB683A691A60FB6801225A621BE027
:10598000FB685B6A5A1CFB685A62FB68DA68FB6852
:105990005B6A9B001946104613F0C2FB0246FB6887
:1059A000DA60FB68DA68FB685B6A03F18043013BFD
:1059B0009B0013443A691A603B6900221A823B69D2
:1059C00000225A82002010F0CDFE03469BB2013B1C
:1059D0009BB21AB23B699A82002010F0E9FE03469E
:1059E0009BB2013B9BB21AB23B69DA823CE03B6856
:1059F0009B68002B02D13868FEF7AEFE3B689B68BF
:105A00001B68002B10D13B689C68042013F02AFB14
:105A1000034623603B689B681B683A691A603B68D1
:105A20009B6801225A601FE03B689B685A680132FC
:105A30005A603B689B681A683B689B685B68990082
:105A40003B689C68104613F06BFB034623603B6881
:105A50009B681A683B689B685B6803F18043013B65
:105A60009B0013443A691A603B6918461C37BD46CF
:105A700090BD80B584B000AF7860786801F0E2FE38
:105A8000002006F0B9FB78680AF01CFC786800F08A
:105A9000ABF8012006F0B0FB4FF6FF724FF4702117
:105AA000786806F0DFFA786802F0FEFB1CF03CFA3A
:105AB000F860FB68002B09D0786800F06BF80346AB
:105AC000002B03D07968F8681CF03AFA786808F07F
:105AD00045F9B860BB68002B0CD07A682221B86801
:105AE000FDF7FCFC7A682321B868FDF7F7FC7868BD
:105AF00003F09BF800BF1037BD4680BD80B582B073
:105B000000AF78607B681B689B68002B07D07B68C0
